{
  "contractName": "Faucet",
  "abi": [
    {
      "inputs": [],
      "name": "numOfFunders",
      "outputs": [
        {
          "internalType": "uint256",
          "name": "",
          "type": "uint256"
        }
      ],
      "stateMutability": "view",
      "type": "function",
      "constant": true
    },
    {
      "inputs": [],
      "name": "owner",
      "outputs": [
        {
          "internalType": "address",
          "name": "",
          "type": "address"
        }
      ],
      "stateMutability": "view",
      "type": "function",
      "constant": true
    },
    {
      "stateMutability": "payable",
      "type": "receive",
      "payable": true
    },
    {
      "inputs": [],
      "name": "emitLog",
      "outputs": [
        {
          "internalType": "bytes32",
          "name": "",
          "type": "bytes32"
        }
      ],
      "stateMutability": "pure",
      "type": "function",
      "constant": true
    },
    {
      "inputs": [],
      "name": "addFunds",
      "outputs": [],
      "stateMutability": "payable",
      "type": "function",
      "payable": true
    },
    {
      "inputs": [
        {
          "internalType": "uint256",
          "name": "withdrawAmount",
          "type": "uint256"
        }
      ],
      "name": "withdraw",
      "outputs": [],
      "stateMutability": "nonpayable",
      "type": "function"
    },
    {
      "inputs": [
        {
          "internalType": "uint256",
          "name": "index",
          "type": "uint256"
        }
      ],
      "name": "getFunderAtIndex",
      "outputs": [
        {
          "internalType": "address",
          "name": "",
          "type": "address"
        }
      ],
      "stateMutability": "view",
      "type": "function",
      "constant": true
    },
    {
      "inputs": [],
      "name": "getAllFunders",
      "outputs": [
        {
          "internalType": "address[]",
          "name": "",
          "type": "address[]"
        }
      ],
      "stateMutability": "view",
      "type": "function",
      "constant": true
    }
  ],
  "bytecode": "0x608060405234801561001057600080fd5b50336000806101000a81548173ffffffffffffffffffffffffffffffffffffffff021916908373ffffffffffffffffffffffffffffffffffffffff160217905550610872806100606000396000f3fe6080604052600436106100745760003560e01c8063a26759cb1161004e578063a26759cb146100ff578063af7f2c9b14610109578063c218deca14610134578063f42c13bf146101715761007b565b80632e1a7d4d146100805780636fbbb55d146100a95780638da5cb5b146100d45761007b565b3661007b57005b600080fd5b34801561008c57600080fd5b506100a760048036038101906100a2919061053d565b61019c565b005b3480156100b557600080fd5b506100be610233565b6040516100cb9190610656565b60405180910390f35b3480156100e057600080fd5b506100e9610379565b6040516100f6919061063b565b60405180910390f35b61010761039d565b005b34801561011557600080fd5b5061011e6104bd565b60405161012b91906106b3565b60405180910390f35b34801561014057600080fd5b5061015b6004803603810190610156919061053d565b6104c3565b604051610168919061063b565b60405180910390f35b34801561017d57600080fd5b50610186610500565b6040516101939190610678565b60405180910390f35b8067016345785d8a00008111156101e8576040517f08c379a00000000000000000000000000000000000000000000000000000000081526004016101df90610693565b60405180910390fd5b3373ffffffffffffffffffffffffffffffffffffffff166108fc839081150290604051600060405180830381858888f1935050505015801561022e573d6000803e3d6000fd5b505050565b6060600060015467ffffffffffffffff811115610279577f4e487b7100000000000000000000000000000000000000000000000000000000600052604160045260246000fd5b6040519080825280602002602001820160405280156102a75781602001602082028036833780820191505090505b50905060005b600154811015610371576003600082815260200190815260200160002060009054906101000a900473ffffffffffffffffffffffffffffffffffffffff16828281518110610324577f4e487b7100000000000000000000000000000000000000000000000000000000600052603260045260246000fd5b602002602001019073ffffffffffffffffffffffffffffffffffffffff16908173ffffffffffffffffffffffffffffffffffffffff168152505080806103699061075e565b9150506102ad565b508091505090565b60008054906101000a900473ffffffffffffffffffffffffffffffffffffffff1681565b6000339050600260008273ffffffffffffffffffffffffffffffffffffffff1673ffffffffffffffffffffffffffffffffffffffff16815260200190815260200160002060009054906101000a900460ff166104ba576000600160008154809291906104089061075e565b9190505590506001600260008473ffffffffffffffffffffffffffffffffffffffff1673ffffffffffffffffffffffffffffffffffffffff16815260200190815260200160002060006101000a81548160ff021916908315150217905550816003600083815260200190815260200160002060006101000a81548173ffffffffffffffffffffffffffffffffffffffff021916908373ffffffffffffffffffffffffffffffffffffffff160217905550505b50565b60015481565b60006003600083815260200190815260200160002060009054906101000a900473ffffffffffffffffffffffffffffffffffffffff169050919050565b60007f48656c6c6f000000000000000000000000000000000000000000000000000000905090565b60008135905061053781610825565b92915050565b60006020828403121561054f57600080fd5b600061055d84828501610528565b91505092915050565b6000610572838361057e565b60208301905092915050565b61058781610718565b82525050565b61059681610718565b82525050565b60006105a7826106de565b6105b181856106f6565b93506105bc836106ce565b8060005b838110156105ed5781516105d48882610566565b97506105df836106e9565b9250506001810190506105c0565b5085935050505092915050565b6106038161072a565b82525050565b6000610616602983610707565b9150610621826107d6565b604082019050919050565b61063581610754565b82525050565b6000602082019050610650600083018461058d565b92915050565b60006020820190508181036000830152610670818461059c565b905092915050565b600060208201905061068d60008301846105fa565b92915050565b600060208201905081810360008301526106ac81610609565b9050919050565b60006020820190506106c8600083018461062c565b92915050565b6000819050602082019050919050565b600081519050919050565b6000602082019050919050565b600082825260208201905092915050565b600082825260208201905092915050565b600061072382610734565b9050919050565b6000819050919050565b600073ffffffffffffffffffffffffffffffffffffffff82169050919050565b6000819050919050565b600061076982610754565b91507fffffffffffffffffffffffffffffffffffffffffffffffffffffffffffffffff82141561079c5761079b6107a7565b5b600182019050919050565b7f4e487b7100000000000000000000000000000000000000000000000000000000600052601160045260246000fd5b7f596f752063616e206f6e6c7920776974686472617720302e312065746865722060008201527f617420612074696d650000000000000000000000000000000000000000000000602082015250565b61082e81610754565b811461083957600080fd5b5056fea264697066735822122067d77692504963756672e03f85c0ffa283c9e75f41deb1f8a7212d547d51e72964736f6c63430008040033",
  "immutableReferences": {},
  "source": "// SPDX-License-Identifier: MIT\r\npragma solidity >=0.4.22 <0.9.0;\r\n\r\nimport \"./Owned.sol\";\r\nimport \"./Logger.sol\";\r\nimport \"./IFaucet.sol\";\r\n\r\ncontract Faucet is Owned, Logger, IFaucet{\r\n \r\n    uint public numOfFunders;\r\n    mapping(address => bool) private funders;\r\n    mapping(uint => address) private fundersList;\r\n\r\n\r\n    modifier limitWithdrawal(uint withdrawAmount) {\r\n        require(withdrawAmount <= 0.1 ether, \"You can only withdraw 0.1 ether at a time\");\r\n        _;\r\n    }\r\n\r\n    receive() external payable {}\r\n\r\n    function emitLog() public override pure returns(bytes32){\r\n        return \"Hello\";\r\n    }\r\n    \r\n    function addFunds() override external payable {\r\n        address funder = msg.sender;\r\n        if (!funders[funder]) {\r\n            uint index = numOfFunders++;\r\n            funders[funder] = true;\r\n            fundersList[index] = funder;\r\n        }\r\n    }\r\n\r\n    function withdraw(uint withdrawAmount) override external limitWithdrawal(withdrawAmount){\r\n        payable(msg.sender).transfer(withdrawAmount);\r\n    }\r\n\r\n    function getFunderAtIndex(uint index) external view returns (address) {\r\n        return fundersList[index];\r\n    }\r\n\r\n    function getAllFunders() external view returns (address[] memory) {\r\n        address[] memory allFunders = new address[](numOfFunders);\r\n        for (uint i = 0; i < numOfFunders; i++) {\r\n            allFunders[i] = fundersList[i];\r\n        }\r\n        return allFunders;\r\n    }\r\n}",
  "sourcePath": "C:\\Users\\magil\\Desktop\\web3\\SolCourse\\blockchain\\faucet\\contracts\\Faucet.sol",
  "compiler": {
    "name": "solc",
    "version": "0.8.4+commit.c7e474f2.Emscripten.clang"
  },
  "schemaVersion": "3.4.11",
  "updatedAt": "2023-02-23T21:44:11.321Z",
  "networkType": "ethereum",
  "devdoc": {
    "kind": "dev",
    "methods": {},
    "version": 1
  },
  "userdoc": {
    "kind": "user",
    "methods": {},
    "version": 1
  }
}